:020000043400C6
:1004000000E00134991F001467820014698200140F
:1004100099820014A1820014A9820014B1820014F0
:10042000000000000000000000000000B98200147D
:10043000C182001400000000C9820014D18200149F
:10044000D9820014D9820014D9820014D9820014F0
:10045000D9820014D9820014D9820014D9820014E0
:10046000D9820014D9820014D9820014D9820014D0
:10047000D9820014D9820014D9820014D9820014C0
:10080000D9820014000000000230800803D00130BB
:100810000238FCD100BF00BF7047EFF3108072B602
:10082000704780F3108870472DE9F04F16461F4639
:10083000C56904462DED048B93B0DDF88C80CDE9BD
:10084000066775B9102005F0DDFA0246E06120B9AF
:10085000AF4BEF21AF4806F07FFDC0E901550560C1
:10086000C560E369196851B15A6801232046934075
:100870004A608B6006F0D6F8E36900221A603B1EDE
:10088000B7BF23F00043002301220793A8BFC8F895
:100890000030DDF81C90A04BB8BFC8F8002033EA48
:1008A00009031BD142F20F73229A1360C9F3130399
:1008B000334300F09485249B63B9984B27E0984B11
:1008C00003930833249A1360039813B0BDEC048B90
:1008D000BDE8F08F914B03930333F3E79DED067B67
:1008E0000022002351EC170BB0EE478AF0EE678A26
:1008F00007F0CAFA804660B10123229A1360249B54
:10090000002B00F06985874B249A1360013B039309
:10091000DAE710ABC9F30A552046019311AB0093F7
:1009200053EC182B06F0FEFA8246002D7DD018EE0F
:10093000903AA5F2FF35CDF83880C3F3130343F0A6
:100940007F5343F4401351EC180B19460022764BA9
:1009500006F07AFE68A3D3E9002307F02DF868A318
:10096000D3E9002306F072FE06460F46284606F03D
:10097000B9FF65A3D3E9002307F01EF802460B4632
:100980003046394606F062FE06460F4607F0C4FAC6
:100990000022834600233046394607F07FFA48B1EB
:1009A000584606F09FFF32463B4607F06DFA08B9FD
:1009B0000BF1FF3BBBF1160F57D85C4B03EBCB039E
:1009C00051EC180BD3E9002307F068FA00284ED049
:1009D0000BF1FF3B00230D93109B5B1B5A1E4CBF7A
:1009E000C3F101030023099245BF08930023089334
:1009F0000993BBF1000F3CDB099BCDF830B05B44A1
:100A0000099300230A93209B092B68D8052BC5BFA7
:100A1000043B002501252093209B023B032B00F281
:100A20008980DFE803F0303D3B5ADDE910531D4477
:100A300005F23243202BC9BFC3F14003C3F12003A9
:100A400009FA03F905F21243D8BF06FA03F005F1DB
:100A5000FF35C4BF26FA03F349EA030006F032FF6C
:100A60000122A1F1F8730E926FE70123B3E70D9015
:100A7000B2E7089BA3EB0B030893CBF100030A93A7
:100A800000230C93BFE700230B93219B002B54DC26
:100A900001231A46CDE9043321920BE00123F3E749
:100AA00000230B93219B5B4404930133012B05939B
:100AB000B8BF0123E0690021042202F114069E421E
:100AC0003FD94160204605F06DFF039000283BD1DF
:100AD000174B024640F2AF11BCE60123E1E70125C6
:100AE00000230B9520934FF0FF330022CDE9043310
:100AF0001223D1E7AFF3008061436F63A787D23F32
:100B0000B3C8608B288AC63FFB799F501344D33FFC
:100B100099B10014B0B100140000F07F95B1001439
:100B20008CB1001469B100140000F83F70AA0014E1
:100B300009B2001401230B93D5E7219BCDE90433BF
:100B4000B8E701315200B8E7E369039A1A60059BE0
:100B50000E2B00F2A880002D00F0A580BBF1000F45
:100B600038DD0BF00F02BF4B1BF4807F4FEA2B18D0
:100B700003EBC203D3E9006719D0BB4B08F00F08A1
:100B80000325D3E9082351EC180B07F03FF8CDE912
:100B90000601DFF8D492B8F1000F0AD132463B4685
:100BA000DDE9060107F032F8CDE906012BE0022568
:100BB000EFE718F0010F08D0304639460135D9E982
:100BC000002306F0F9FE06460F464FEA680809F1D1
:100BD0000809E0E700F09F80CBF10006A14BA24F8F
:100BE000022506F00F02361103EBC20351EC180B7D
:100BF000D3E9002306F0E0FE0023CDE90601002E34
:100C00007ED1002BD0D10D9BDDE90689002B00F0B1
:100C100084800022954B4046494607F03FF9002862
:100C20007BD0059B002B78D0049B002B39DD002264
:100C30008F4B4046494606F0BFFE0BF1FF370135AA
:100C4000049ECDE90601DDE90689284606F04AFE44
:100C500042464B4606F0B0FE864B002206F0F6FCFC
:100C6000A1F15073CDE906010793002E58D100225F
:100C7000814B4046494606F0E7FC80468946DDE95F
:100C8000062307F029F9002840F097824046DDE965
:100C9000062101F10043494607F000F9002840F021
:100CA0008A828DED068B119B002BC0F24E81BBF129
:100CB0000E0F00F34A816B4B03EBCB03D3E90089A2
:100CC000219B002B80F2DC80059B002B00F3D88059
:100CD00040F070820022684B4046494606F06CFEA8
:100CE000DDE9062307F0EEF8059E3746002840F0C0
:100CF0004682039D31230BF1010B05F8013B42E2D3
:100D0000F20705D50135D7E9002306F055FE01238A
:100D10007610083773E7022575E75F46059E92E770
:100D20000399504B314403EBC6039DED067B0691BE
:100D30000B99B0EE479AF0EE679A53E90223002927
:100D400044D000204D4906F061FF53EC192B06F00A
:100D50007BFC039D41EC190B4946404607F0DCF84B
:100D6000064606F0BFFD024630360B464046494671
:100D700006F06AFC05F8016B8046894653EC192B96
:100D800007F08CF8002864D142464B4600203749D2
:100D900006F05AFC53EC192B07F080F8002840F0BD
:100DA000B680069B9D423FF47CAF0022304B51EC55
:100DB000190B06F001FE00222D4B41EC190B4046A9
:100DC000494606F0F9FD80468946C5E751EC170B08
:100DD00006F0F2FD069B039D0F9341EC190B49466B
:100DE000404607F099F8064606F07CFD02460B46A1
:100DF00040464946303606F027FC069B05F8016B55
:100E000080469D4289464FF0000224D11B4B51EC95
:100E1000190B06F01BFC02460B464046494607F0FC
:100E20005BF8002873D10020144953EC192B06F00D
:100E30000BFC02460B464046494607F02FF80028B7
:100E40003FF42FAF0F9D6B1E0F9315F8013C302B15
:100E5000F8D0BB464AE0064B06F0AEFD8046894618
:100E6000BDE700BF70AA001448AA00140000F03FBC
:100E70000000244000001C40000014400000E03F3F
:100E8000DDE90667039D42464B463046394606F08B
:100E9000BDFE07F041F8049006F024FD42464B46A3
:100EA00006F08AFD02460B463046394606F0CCFB7A
:100EB000049E059F024630360B4605F8016B039EE3
:100EC000AE1BB74234D106F0C1FB42464B46064644
:100ED0000F4607F001F8C8B942464B46304639463E
:100EE00006F0D2FF10B1049BDB070FD45146204619
:100EF00005F098FD0023229A2B700BF1010313607B
:100F0000249B002B3FF4E0AC1D60DDE45F462B46E4
:100F10001D4613F8012D392A06D1039A9A42F7D1BA
:100F20003022039901370A701A7801321A7090E75B
:100F30000022A34B06F040FD0022002306460F4688
:100F400006F0A2FF00289ED0D0E70B9A002A00F0FE
:100F5000CB80209A012A00F3AD800E9A002A00F07F
:100F6000A58003F233430A9E089D089A012120467A
:100F70001A440892099A1A44099205F0BDFD0746E1
:100F800065B1099B002B09DDAB42089AA8BF2B462F
:100F9000D21AED1A0892099AD31A09930A9BF3B14F
:100FA0000B9B002B00F0A480002E10DD394632464A
:100FB000204605F061FE524601460746204605F0F0
:100FC000B1FD804651462046C24605F02BFD0A9BE6
:100FD0009A1B04D05146204605F04EFE8246012160
:100FE000204605F089FD0C9B0646002B40F38280CD
:100FF0001A460146204605F03FFE209B0646012B7F
:101000007BDD4FF00008336906EB8303186909F0B4
:1010100097FBC0F12000099B184410F01F0000F05E
:101020009580C0F12003042B40F38680C0F11C00A2
:10103000089B034405440893099B03440993089BB8
:10104000002B05DD51461A46204605F06FFE82460C
:10105000099B002B05DD31461A46204605F066FE49
:1010600006460D9B002B73D03146504609F0B5FB68
:1010700000286DDA002351460A22204605F0F4FCD0
:101080000B9B0BF1FF3B8246002B00F0AF8100234E
:1010900039460A22204605F0E7FC049B0746002B50
:1010A00000F39680209B022B5ADC91E0109BC3F149
:1010B000360358E7059B5E1E0A9BB342B7BF0A9BE7
:1010C0009E1B0C9AF31ABEBF0A960026D218059BE7
:1010D000B8BF0C92002BBBBF089B059A089D9D1AB8
:1010E000ACBF059B002340E70A9E089D0B9F47E786
:1010F0000A9A6FE7209B012B19DC069BBBB9079B63
:10110000C3F313039BB9079B23F000431B0D1B057F
:1011100083B1089B4FF0010801330893099B013309
:1011200009930C9B002B7FF46EAF012073E74FF007
:101130000008F6E79846F4E781D01C33089A1A4471
:101140001D440892099A1A44099278E70346F4E785
:10115000059B002B36DC209B022B33DD059B049383
:10116000049B63B931460522204605F07DFC01460B
:101170000646504609F031FB00283FF7BAAD219BE7
:10118000039D6FEA030B4FF000083146204605F03F
:1011900049FC002F3FF4AAAEB8F1000F05D0B845C6
:1011A00003D04146204605F03DFC3946204605F077
:1011B00039FC9BE600263746E1E7BB46374698E513
:1011C000000024400B9B002B00F0C880059B04937B
:1011D000002D05DD39462A46204605F0A7FD0746C5
:1011E000B8F1000F5BD07968204605F0DBFB0546BF
:1011F00028B9824B024640F2EF21FFF72BBB3A6938
:1012000007F10C010C300232920009F0F4F90122CE
:101210002946204605F08AFD039BB8460746013360
:101220000593DDE9032313440A93069B03F00103AE
:101230000993059B31465046013B049309F0F0F9B0
:101240004146069000F13009504609F0C6FA3A4688
:1012500008903146204605F0D5FDC268054602BB20
:101260000146504609F0B9FA0246294620460B923B
:1012700005F0D8FB209B0B9A059D43EA0201099BD0
:10128000194310D1B9F1390F29D0089B002B02DD89
:10129000069B03F13109049B83F8009075E73846FB
:1012A000BAE70122E1E7089B002B04DB20990B43FE
:1012B00009990B4320D1002AEDDD51460122204639
:1012C00005F034FD3146824609F087FA002803DC38
:1012D000E1D119F0010FDED0B9F1390FD8D139239E
:1012E000049A13702B461D46013B15F8012C392A30
:1012F0006BD001321A7048E7002A07DDB9F1390FC7
:10130000EDD009F10103049A13703EE7059B0A9A98
:1013100003F8019C934242D0514600230A22204602
:1013200005F0A2FBB84582464FF000034FF00A02D9
:101330004146204607D105F097FB80460746059BAE
:101340000133059375E705F08FFB3946804600238E
:101350000A22204605F088FB0746F0E7059B049328
:10136000039D3146504609F05BF9039B00F13009BB
:1013700005F8019BEA1A049B934207DD51460023BE
:101380000A22204605F070FB8246EAE7049B4FF0F4
:101390000008002BCCBF1D460125039B1D44514670
:1013A0000122204605F0C2FC3146824609F015FABA
:1013B000002897DC02D119F0010F93D12B461D466E
:1013C00013F8012D302AFAD0DFE6039A9A428AD127
:1013D0000BF1010B312397E7094BFFF798BA249BD8
:1013E000002B7FF46CAA074BFFF791BA049B002BEC
:1013F000B6DC209B022B3FF7B3AEB1E709B2001475
:1014000068B100148CB100140348044B834202D02D
:10141000034B03B118477047EC040134EC0401346A
:1014200000000000064B0749C91A891048BF013166
:10143000491003D0044B0BB101481847704700BF57
:10144000EC040134EC0401340000000010B5064C3B
:10145000237843B9FFF7D8FF044B13B10448AFF327
:1014600000800123237010BD6C0F013400000000C8
:1014700074B5001408B5054B1BB105490548AFF319
:101480000080BDE80840FFF7CDBF00BF00000000AE
:10149000F00B013474B50014A3F5803A704700BF17
:1014A000174B002B08BF134B9D46FFF7F5FF00219C
:1014B0008B460F461348144A121A09F084F80E4B53
:1014C000002B00D098470D4B002B00D098470020F0
:1014D000002104000D000D48002802D00C48AFF395
:1014E000008005F0EFF92000290000F075FA04F003
:1014F00077FC00BF000008000000000000000000B2
:1015000000E00134F00B0134700F013400000000E2
:101510000000000010B584B04FF4003301934FF485
:10152000C023029307238DF80C3001238DF80E3071
:1015300003238DF80F3002238DF80D300A4C01A9DA
:10154000204601F0AFF805238DF80D3001A92046A3
:1015500001F0A8F806238DF80D3001A9204601F00E
:10156000A1F804B010BD00BF004023522DE9F047A0
:1015700084B0002301934FF4FC2ACDF808A04FF06B
:1015800007098DF80C904FF001088DF80E800327A5
:101590008DF80F7002238DF80D30164C01A92046EE
:1015A00001F080F805268DF80D6001A9204601F0B4
:1015B00079F806258DF80D5001A9204601F072F842
:1015C000CDF804A04FF4005302938DF80C908DF8E1
:1015D0000E808DF80F708DF80D6001A9204601F086
:1015E00061F88DF80D5001A9204601F05BF804B0B8
:1015F000BDE8F0870040245210B584B04FF4283382
:1016000001934FF4B033029307238DF80C3001237C
:101610008DF80E3003238DF80F3002238DF80D3036
:101620000A4C01A9204601F03DF805238DF80D3044
:1016300001A9204601F036F806238DF80D3001A9E6
:10164000204601F02FF804B010BD00BF0020215249
:1016500010B584B0002301934FF4A0030293082334
:101660008DF80C3001238DF80E3003238DF80F30E8
:1016700002238DF80D300A4C01A9204601F012F822
:1016800005238DF80D3001A9204601F00BF8062343
:101690008DF80D3001A9204601F004F804B010BD0A
:1016A0000020645408B5FFF735FFFFF75FFFFFF731
:1016B000A3FFFFF7CDFF0121014801F0DBF808BDD2
:1016C0000020645408B5134900230B7101234B71AA
:1016D0008B710E230B800F234B800F4801F058F9BC
:1016E00000B1FEE70B4900230B804B800A4801F054
:1016F0004FF900B1FEE7094900230B804FF49F73B7
:101700004B804FF0FF334B60034801F0DBF900B131
:10171000FEE708BD4C0C013400000252440C0134B9
:1017200008B53E4901230B714B718B7110230B805F
:101730004B803B4801F02CF900B1FEE737492123EB
:101740000B8028234B80364801F022F900B1FEE7D8
:1017500032492F230B804B80314801F019F900B139
:10176000FEE72E4937230B8062234B802C4801F083
:101770000FF900B1FEE7294973230B804B802848FD
:1017800001F006F900B1FEE7244979230B804FF4FC
:101790009F734B80224801F0FBF800B1FEE71F4920
:1017A00012230B804B801E4801F0F2F800B1FEE7D7
:1017B0001A4915230B8016234B80194801F0E8F8CD
:1017C00000B1FEE715491E230B804B80144801F041
:1017D000DFF800B1FEE7114900230B8006234B80A0
:1017E0000F4801F0D5F800B1FEE70C490D230B803E
:1017F0004B800B4801F0CCF800B1FEE7094900230B
:101800000B804FF49F734B804FF0FF334B600448C5
:1018100001F058F900B1FEE708BD00BF4C0C0134DF
:1018200000000252440C013408B53D4901230B70FD
:101830003C4801F099F800B1FEE73B4901230B71E8
:101840004B718B710E230B804B80364801F0A0F852
:1018500000B1FEE734490F230B8014234B8031483D
:1018600001F096F800B1FEE72F4910230B801D23ED
:101870004B802C4801F08CF800B1FEE72A491E236A
:101880000B805C234B80274801F082F800B1FEE713
:10189000254961230B80A3234B80224801F078F86F
:1018A00000B1FEE7204900230B804B801D4801F06A
:1018B0006FF800B1FEE71C490B230B804B801948E1
:1018C00001F066F800B1FEE7174901230B800423FD
:1018D0004B80144801F05CF800B1FEE712499223F6
:1018E0000B8094234B800F4801F052F800B1FEE7C3
:1018F0000D4995230B8097234B800A4801F048F847
:1019000000B1FEE7094900230B80A3234B804FF071
:10191000FF334B60034801F0D5F800B1FEE708BD86
:10192000540C0134000002544C0C0134440C0134BA
:1019300030B585B04FF4501301934FF40C0302936C
:101940000C238DF80C3002238DF80D3001208DF81A
:101950000E0003238DF80F3003F0C0FA0D4C01A9DF
:10196000204600F09FFE05238DF80D3001A920468A
:1019700000F098FE06258DF80D5001A9204600F0D4
:1019800091FE8DF80D5001A9034800F08BFE05B0C3
:1019900030BD00BF004045540030465410B50C49DE
:1019A000022000F0B5FF044608B1204610BD052115
:1019B00000F09EFF0521002000F08AFF0446002869
:1019C000F3D106F023FD0528EFD0024CEDE700BF70
:1019D000E11C001403008A0170B503F043FC0446C7
:1019E00003F040FC064608F0EEFA9C4D9C4A9D49E7
:1019F000284601F0A1F82B6843F000432B6062B643
:101A0000002C00F01F81012E00F02081964804F088
:101A10009FFE964804F09CFEFFF754FE944804F0A5
:101A200097FE03F055FF012003F09AFF914804F060
:101A30008FFE012300220421184608F0F1F9FFF778
:101A400031FE8D4804F084FE012302221946184617
:101A500008F0E6F9894B0022C3F8D820884AC3F879
:101A6000DC2002F55F2202F6E172C3F8E0200122D9
:101A7000C3F8D8208349C3F8DC108349C3F8E010C9
:101A80000221C3F8D8108149C3F8DC10E331C3F850
:101A9000E0100321C3F8D8104FF08441C3F8DC10E4
:101AA0007B49C3F8E0100421C3F8D8104FF000714F
:101AB000C3F8DC107749C3F8E0100521C3F8D8104B
:101AC0004FF01851C3F8DC107349C3F8E010062139
:101AD000C3F8D8104FF00851C3F8DC106F49C3F8B1
:101AE000E0100721C3F8D8104FF00061C3F8DC10F4
:101AF0006B49C3F8E010C3F8D0201A6922F008023D
:101B00001A61DA6822F4C04222F008021204120CB0
:101B100042F0BF6242F41032DA60A3F54063614ADA
:101B2000C3F88022604AC3F884226FF0C002C3F871
:101B300088224FF0FF32C3F88C22C3F8902202F5BE
:101B40000022C3F89422594804F002FE00F076F90E
:101B5000014600287ED1564804F0FAFD00F0E4F872
:101B6000544804F0F5FD00F0F9F862B6FFF7E0FE26
:101B7000514804F0EDFD06F0A9FAFF2301221146B9
:101B8000092000F089FE0521092000F0A1FEFF23B5
:101B900001221146062000F07FFE0521062000F0FC
:101BA00097FEFF23012211460B2000F075FE052150
:101BB0000B2000F08DFE414BD3F8002482F388887F
:101BC000D3F8044423463E493E4804F0AFFD4FF4A9
:101BD0007A7003F083F9FFF7A3FDFFF725FE274A8C
:101BE000D2F8883043F47003C2F88830364BD3F80B
:101BF000881041F47001C3F88810D2F88C1041F4B9
:101C00004061C2F88C10D3F88C2042F44062C3F8D3
:101C10008C202E4A536B23F05C4343F050435363B4
:101C2000FFF7BCFE2A4800F0BFFA640864002046B3
:101C300021462246234608F091FA4FF47A7003F0C9
:101C40004DF9FAE7234804F083FDE2E6224804F068
:101C50007FFDDEE6214804F069FD7FE700009B522E
:101C6000080C013410AD001498AB0014C8AB00147C
:101C7000E8AB001400AC001410AC001400ED00E060
:101C80000000022400000204E1FF5F0600FF0014D0
:101C9000E1FFFF6781B2C203E1FF4F26E1FFC123ED
:101CA000E1FFFF0BFFFF0F0000FBFF9F24AC0014C0
:101CB00034AC001478AC00148CAC00140000346018
:101CC00000043460A0AC001400ED02E000EF00E07E
:101CD000800A815238AB001468AB001450AC001479
:101CE00038B5104B5C6804F58053DB689DB21A0C64
:101CF00008D01B0C1B0404F5805213601368E369C1
:101D0000002B09DB1DB104F58054256023680521F3
:101D1000002000F0DDFD38BDE3680021204600F022
:101D200061FCEFE7E4AC001408B50849084803F08B
:101D3000A1F862B6074B4FF480425A60064B5B68CD
:101D400003F580534FF001129A6008BDE11C0014A6
:101D5000DCAC001400E100E0E4AC001408B5064976
:101D60000B46802243F80C2B4B60044B8B60032006
:101D700000F058FC08BD00BF64E10F3400F00134EE
:101D800070B584B00C4600258DF80F508269D36A77
:101D90001B7892F83C600A4A00920DF10F0201464E
:101DA000084806F0A5FF257038B99DF80F3036EACF
:101DB00003030CBF01232B46237004B070BD00BF8A
:101DC000580C01340000465470B5064600250A4AF6
:101DD00031460A4806F0AAFF0446052003F07EF8C3
:101DE00001351CB140F2ED239D42F0D90CB9002021
:101DF00070BD0348FCE700BF580C01340000465496
:101E00000200B20010B50446094A0A4B19680A4894
:101E100001F088FD00B110BD054A2146064801F0D9
:101E2000ABFD0028F7D12046FFF7CEFFF3E700BF58
:101E3000580C013448B100140000465470B584B009
:101E400000238DF80F30244B4FF47A722349244835
:101E500001F0E4F8044610B1204604B070BD214BF7
:101E60001D681F4C2A7A2978204606F015FD1A4E67
:101E70003146204606F03AFD32461B49204601F025
:101E80002DFC0446AB69DB6A1B68013B13F1030FB1
:101E900007D87CB1002CDFD10121114806F0EEFCFF
:101EA000DAE700960123022229460D4801F008FFD7
:101EB0000446EEE70DF10F012846FFF761FF0446E7
:101EC0000028E7D19DF80F30002BE3D12846FFF71B
:101ED00099FF0446DEE700BF580C0134ECAC001457
:101EE0000000465448B1001438B1001410B504463F
:101EF0002146034806F0CAFA0028F9D010BD00BFF9
:101F000000009B52054BD3F80833C3F30803002BA2
:101F1000F8D0024BD3F84003704700BF00009B523B
:101F200008B5184A536B23F040435363A2F500727F
:101F3000D2F8883043F47003C2F88830124A0AE0BD
:101F40001068516850F8230041F82300013391686C
:101F50008B42F5D30C320D4B9A4201D20023F6E7A7
:101F60000B4A08E01168002041F823000133516852
:101F70008B42F7D30832074B9A4201D20023F6E78F
:101F8000FFF78EFA00EF00E074B5001480B500147E
:101F900080B5001488B5001408B5104B1A6822F0FB
:101FA00000421A601A6842F000421A6072B60023BA
:101FB00006E00B4A52F823100A4A42F82310013374
:101FC000D42BF6D9074A084B9A60BFF35F8F074BB3
:101FD00083F30A8806F08AF9FFF7A2FF0030225245
:101FE000000400140008013400ED00E000D80134C2
:101FF00010B5002007F005FF114C2060114B186050
:102000000A2007F0FEFE104B186023680F4A136089
:1020100003F5742202F23F220D49A1FB0212920C39
:102020000C490A6003F2E7330B4AA2FB03239B0926
:102030000A4A1360002007F0E4FE094B186010BD47
:1020400000000134080001340C0001341000013498
:1020500083DE1B4318000134D34D62101400013499
:102060000400013470B59DF810E0072900D901BEC5
:1020700032F00F046CD0802A6AD001BE012B00D947
:1020800001BE3EF01F0400D001BE072900D901BEE9
:102090003EF01F0400D001BE00F12D4C0CF5FE0CEB
:1020A0004FEADC1C0CF1A56C4FEA0C1C3A4CA04228
:1020B0000ED08034A0420BD08034A04208D0374CE0
:1020C000A04205D08034A04202D08034A0420FD17B
:1020D000334CA04241D94FF4802CA0EB0C0404F106
:1020E0002B4404F539042F4D05EBD4140CEB041CE0
:1020F000032935D8DCF80040CE001F25B54024EA7E
:1021000005040EF01F0E0EFA06FE44EA0E04CCF88B
:10211000004004684FF0010C0CFA01FC24EA0C04A6
:1021200003F001038B4023430360446C89000F23B9
:102130008B4024EA030C046F24EA0303802A20D096
:1021400002F00F028A4042EA0C024264036770BD4B
:10215000012A92D0092A91D18FE74FF0000CBCE7F9
:102160000C1FDCF80450E4001F26A64025EA0605F3
:102170000EF01F0E0EFA04FE45EA0E05CCF80450D0
:10218000C7E708248C4044EA0C044464C2F30312F9
:102190008A401A430267DAE70000475400004B54B4
:1021A000FFFF4A540064440510B42249884216D007
:1021B00000F12D4303F5FE03DB0903F1A5621201D3
:1021C000803188420BD08031884208D01A49884239
:1021D00005D08031884202D0803188420FD1174B20
:1021E000984225D94FF48022811A01F12B4101F543
:1021F0003901CB09124C04EBD11102EB011203F1AE
:10220000A56303F580731B01FF211960002343665A
:102210008366C366036043648364C3640364836149
:10222000036513605360036743675DF8044B7047B1
:102230000022D9E70000475400004B54FFFF4A54E6
:1022400000644405002800F0BC8170B50E461446B9
:102250000546002A00F0B781072900D901BE23688E
:10226000012B00D901BE636833F00F0200F06E81CC
:10227000802B00F06B8101BE237A33F01F0300D066
:1022800001BEE368032B00D901BE2369012B00D9ED
:1022900001BE6369012B00D901BE236A012B00D95D
:1022A00001BE636A012B00D901BEA36A012B00D9CC
:1022B00001BEE36A032B00D901BE236B072B00D9B3
:1022C00001BEE36933F01F0300D001BEA36B1BB155
:1022D000013B062B00D901BEA36933F0070300D0F0
:1022E00001BE636B33F0010300D001BE626B072EA9
:1022F00000D901BE32F01F0300D001BE05F12D430D
:1023000003F5FE03DB0903F1A56303F580731B01ED
:10231000AE498D420ED080318D420BD080318D423E
:1023200008D0AB498D4205D080318D4202D080313A
:102330008D420FD1A74B9D4240F20F814FF4802375
:10234000E91A01F12B4101F53901A34800EBD11144
:1023500003EB011319680120B04021EA000102F0EB
:102360000102B2400A431A60A369072E00D901BED8
:10237000012B00D901BEB0006A6E0721814022EA1C
:10238000010203F00703834013436B66E369072EE2
:1023900000D901BE33F01F0200D001BE032E00F2AF
:1023A000DE80AA6EF0001F21814022EA010203F0C4
:1023B0001F0383401343AB66227A072E00D901BE68
:1023C00032F01F0300D001BE05F12D4303F5FE03DB
:1023D000DB0903F1A5631B017C498D420ED08031DE
:1023E0008D420BD080318D4208D079498D4205D085
:1023F00080318D4202D080318D420FD1754B9D428C
:1024000040F2BA804FF48023E91A01F12B4101F523
:102410003901724800EBD11103EB0113032E00F2D6
:10242000AD8019684FEAC60C1F2000FA0CF021EAB3
:10243000000102F01F0202FA0CF20A431A606368FC
:10244000072E00D901BE33F00F0200F0A680802BCA
:1024500000F0A38001BE4FEA860C6A6C0F2101FADE
:102460000CF122EA0102286F20EA0101802B00F022
:102470009B8003F00F0303FA0CF31A436A64296785
:10248000E368082E00D901BE032B00D901BE7000FD
:102490002A6C0321814022EA010203F003038340F6
:1024A00013432B642369082E00D901BE012B00D9E8
:1024B00001BEAA690121B14022EA010203F0010331
:1024C000B3401343AB616369072E00D901BE012BF2
:1024D00000D901BEAA6C0121B14022EA010203F039
:1024E0000103B3401343AB64296D21F0FF01236A5C
:1024F00003F00103626A520002F002021343A26A6F
:10250000920002F004021343E26AD20002F01802C1
:102510001343226B5201D2B21343B20002F47E7213
:1025200093400B432B65A26B3146284605F029FFEB
:102530002368072E00D901BE012B00D901BE002B54
:102540003BD10123B3406B60002070BD012B3FF4F1
:1025500092AE092B7FF490AE8DE60023F0E6321F99
:10256000E96ED2001F20904021EA000103F01F0312
:1025700093400B43EB661FE7002345E7311F586884
:10258000C9004FF01F0C0CFA01FC20EA0C0002F00D
:102590001F028A4002435A6051E7012B3FF45AAFB1
:1025A000092B7FF458AF55E7082000FA0CF00243DE
:1025B0001B0903FA0CF3194360E70123B340AB6036
:1025C000C2E7074870470648BFE700BF000047540E
:1025D00000004B54FFFF4A54006544050064440565
:1025E00001005A00C369002B07DA0B0C1B0403B16E
:1025F00001BE89B24160002070470148704700BFAA
:1026000001008A000368002B08DAC2600B0C1B046F
:1026100003B101BE89B28160002070470048704755
:1026200001008A001F282ED810B50C4669B30B682C
:1026300013F01F032BD10109164A52F8212000F094
:102640000F0002EB4010144A106004E062680021A1
:1026500042F8231001332268B3EB521FF6D3002156
:10266000FFF7C0FF224600210B4B1868FFF7CAFF97
:1026700008B10A480CE00021074B1868FFF7B2FFC9
:1026800030B1064804E006487047054800E00448B9
:1026900010BD00BFE4AC0014900C013401018A00AD
:1026A00003018A002DE9F84F0646D1F800A0D1F8C1
:1026B0000490CA7A887A91F809B091F8088008F1F4
:1026C0000508012505FA08F5013D0AEA050309EAAE
:1026D0000505B9F1000F00F0BD80002B40F0BE8071
:1026E000002D40F0BD80BBF1070F00F2BB80032A34
:1026F00000F2BA80DFE802F002302C2E2C4668BBD4
:1027000024F00104D6F80072C7F3002700213046F8
:1027100005F06DFEC6F814B229FA08F22AFA08F399
:1027200003F00703C3F10801082000FA08F0BAFB20
:10273000F0FA8A4218D90AF1010C0CFA08FC4FEAA7
:10274000CC0C01FA08F1A9EB010EA946294638E0A4
:102750000424D4E70624D2E70224D0E7012840F07D
:10276000858044F00104CDE7D018013800F007005F
:10277000AE46AC4609E09A000F2191404EEA010EA8
:1027800004FA02F24CEA020C01338342F3D9C6F890
:1027900010A2D6F8183223EA0E0343EA0C03C6F857
:1027A00018323946304605F022FE54E04FEA830BDA
:1027B00004FA0BF211430F2202FA0BF249EA020962
:1027C0000133072BF2D9C6F810A2D6F8183223EA43
:1027D00009030B43C6F81832BCFBF0FCBEFBF0F952
:1027E0002EFA08FE0EF0070E294628460DE09A0044
:1027F00004FA02F211430133072BF8DDC6F810C2C8
:10280000C6F818120CF1010C0130484501D2002322
:10281000F2E7BEF1000F19D13946304605F0E7FD69
:1028200019E0990004FA01F210430F228A4048EAA5
:10283000020801337345F4D3C6F810C2D6F8183233
:1028400023EA08030343C6F81832E5E7A8462846FA
:102850002B46EFE7064D2846BDE8F88F044DFAE712
:10286000034DF8E7024DF6E7014DF4E7004DF2E7BE
:102870000100820160B129B1026842F010020260D9
:1028800000207047026822F01002026000207047AA
:10289000004870470100820130B404010B4D2C59EF
:1028A00069B144F001046AB144F00204A4B244EAFC
:1028B00003430001054A1350002030BC704724F048
:1028C0000104F0E724F00204F0E700BF00402952C1
:1028D000064A00F580700001135823F00F0301F041
:1028E0000F010B4313500020704700BF00402952D6
:1028F000064A00F580700001135823F47023090480
:1029000001F470210B4313500020704700402952FE
:1029100010B4032807D8124C2368012282401343C5
:1029200003F00F032360032817D8DFE800F0020745
:102930000C110B4B19645DF8044B7047084BC3F83E
:1029400000110020F7E7064BC3F840110020F2E722
:10295000034BC3F880110020EDE70248EBE700BF0E
:102960000020265201008A010B78012B0CD82BB9CC
:10297000036823F00103036000207047036843F0FD
:102980000103036000207047004870470100860182
:102990002DE9F84305460B884A8808798F794E79E6
:1029A000934276D80C4644498D4221D043498D420A
:1029B00071D1A32B73D840498D421DD03F498D4220
:1029C0006FD1A32A6FD801286FD8012E6FD8012F9D
:1029D0006FD8D21A013203F01F0CCCF120014FEA5C
:1029E00053188A420CD9ACF120071744002223E087
:1029F000B3F59F7FDFD9D9E7B2F59F7FE3D9DDE754
:102A000002EB0C01013901F01F01002205E0012356
:102A100003FA0CF31A430CF1010C8C45F7D9434629
:102A20002146284605F0FDFC002635E0012303FA87
:102A30000CF31A430CF1010CBCF11F0FF6D94346FD
:102A40002146284605F0EDFC08F101084FEA571928
:102A500007F01F06002709E043464FF0FF322146EA
:102A6000284605F0DEFC08F1010801374F45F3D395
:102A700096B10022134603E0012199400A43013335
:102A8000B342F9D343462146284605F0CAFC002646
:102A900002E00B4E00E00A4E3046BDE8F883084ED7
:102AA000FAE7074EF8E7064EF6E7054EF4E7044E60
:102AB000F2E7034EF0E700BF0000025200000254AC
:102AC000010086010B884A88934224D810B4174C21
:102AD000A0420ED0164CA0421FD1A32B21D8134CDC
:102AE000A0420AD0124CA0421DD1A32A0FD91148EE
:102AF00014E0B3F59F7FF2D9ECE7B2F59F7F06D9DA
:102B0000F0E703F5806C4C6840F82C4001339342A9
:102B1000F7D9002002E00748704706485DF8044BEB
:102B200070470448FAE70348F8E700BF0000025284
:102B30000000025401008601002800F0898103464C
:102B4000002900F0878110B40878022800D901BE5E
:102B5000487B0238C0B2062800D901BE887B20B16C
:102B6000022802D0032800D001BE91F821000128DC
:102B700000D901BE91F82800012800D901BE0878CB
:102B8000012806D9887F48B148680138062805D948
:102B900003E048680838082800D901BE886805386D
:102BA000042800D901BE4869FF2800D901BE886900
:102BB000FF2800D901BE887C30B1087818B9886830
:102BC000092800F08F8001BE886B20F4366020F069
:102BD0000D0000B101BE086C20F4EE6020F003008F
:102BE00000B101BE0878022800F08180486800F139
:102BF000FF3C087F002800F081804FF480308C6813
:102C0000082C7DD94FF4804420430CF00F0C40EA8F
:102C10000C0040F0007018604C6B1868C0F3813CE9
:102C2000802020FA0CF0844200D301BECC6B1868DF
:102C3000C0F3813C802020FA0CF0844200D301BE16
:102C40004C6A1868C0F3813C802020FA0CF0844262
:102C500000D301BE0878000600F040701864487F79
:102C600000284FD040208C7C002C4DD04FF4806445
:102C700020430C7C002C49D04FF4807420434C7CC2
:102C8000002C45D04FF400742043CC6A04F1FF3C83
:102C90004FEA0C4C0CF4702C40EA0C0091F80DC07B
:102CA0000CF1FF3C0CF0070C40EA0C0091F80EC050
:102CB0004FEA0C1C0CF0300C40EA0C009864986C45
:102CC00091F8304034B34FF0807420439864087B0F
:102CD00010B34FF48070CC7B04BB0C78022C45D031
:102CE00000241DE0887B00283FF46EAF6BE7887FEF
:102CF00000287FF47BAF4FF0000C7AE700207EE7DE
:102D0000002481E70020AEE70024B1E70024B5E706
:102D10000024B9E70024D8E70020DCE74FF4007472
:102D200020438C6804F1FF3C0CF01F0C40EA0C00BF
:102D3000C3F8000391F814C08869000400F47F0010
:102D40004CEA0000C3F81003CC6AD3F8000300F08B
:102D50001F000330844201D3102C00D901BEC87F6C
:102D600038B10878012863D0002403E04FF40074E0
:102D7000D6E70024487B013800F00700204391F893
:102D80000EC04FEA0C1C0CF0300C40EA0C005864EA
:102D9000087B00284FD04FF480748868013800F019
:102DA0001F0020430C78012C47D000242043C3F897
:102DB000000291F83400C3F8040391F820000028C1
:102DC0003ED04FF0007091F82140012C3AD0002401
:102DD000204391F82840012C37D00024204391F85B
:102DE00024402043186591F83C00C3F80402886B26
:102DF00020F4926020F002000005000DC3F8C80F17
:102E0000086C20F08C004005400DC3F8880F1AB301
:102E10000020506010609060D0601062D0625063FB
:102E20008B7F82F830300D4B93635DF8044B704715
:102E30004FF480749EE70024AFE74FF48034B5E789
:102E40000020C0E74FF08074C2E74FF48034C5E73C
:102E500003487047024870470020E6E7EFCDAB001B
:102E60000160AA0038B50D464C69CA68D0F8C43074
:102E700003F00F03A34228BF234622E0D0F8D81066
:102E80001170C1F3072C82F801C0C1F3074C82F81E
:102E900002C0090ED170D0F8D8101171C1F3072CFF
:102EA00082F805C0C1F3074C82F806C0090ED17143
:102EB0001A44E41AD0F8C43003F00F03A34228BF29
:102EC0002346002B00F08F8003F1FF3CBCF1070F7D
:102ED00071D801A151F82CF0F92E0014012F001423
:102EE0000F2F0014232F00143F2F0014612F001404
:102EF000892F00147D2E0014D0F8D0101170D7E760
:102F0000D0F8D4101170C1F307215170D0E7D0F878
:102F1000D4101170C1F307215170D0F8D010917006
:102F2000C6E7D0F8D8101170C1F3072C82F801C0A1
:102F3000C1F3074C82F802C0090ED170B8E7D0F88F
:102F4000D8101170C1F3072C82F801C0C1F3074CEF
:102F500082F802C0090ED170D0F8D0101171A7E725
:102F6000D0F8D8101170C1F3072C82F801C0C1F35A
:102F7000074C82F802C0090ED170D0F8D41011713C
:102F8000C1F30721517193E7D0F8D8101170C1F344
:102F9000072C82F801C0C1F3074C82F802C0090E69
:102FA000D170D0F8D4101171C1F307215171D0F84C
:102FB000D01091717CE7D0F8D8301370C3F307219B
:102FC0005170C3F3074191701B0ED370D0F8D83005
:102FD0001371C3F307215171C3F3074191711B0EA4
:102FE000D371082364E7EA606C6194B9D0F8C43007
:102FF00003F00F03012B0ED0D0F8C83723F00203E3
:10300000C0F8C8370323AB612B6A13B12B6A0320C6
:1030100098476C6138BDD0F8D030EDE7002800F05B
:10302000E0808446002900F0DE80002B00F0DD8087
:1030300000685A6200221A8583F82C2090424BDBEC
:1030400000B5DCF8C83723F00303CCF8C8370B7899
:10305000012B00D901BE0B7A012B04D9023BDBB254
:10306000052B00D901BE4B68072B00D901BE0B7B95
:10307000012B00D901BE0B6803F001034A6812045A
:1030800002F4E0221343CA68120602F0807213436E
:10309000CCF800300B7E002B60D0DCF8083023F039
:1030A0000303CCF80830DCF8083023F00803CCF830
:1030B0000830DCF8083023F00403CCF808304B6902
:1030C000962B0ED8DCF8083043F00403CCF8083017
:1030D0000023CCF8D83747E010F0010FB0D0002023
:1030E0007047A3F19702292A0AD9A3F1C102342A11
:1030F0002CD9F63B432B2DD84FF0010E022002E0D5
:103100004FF0000E7046DCF8083023F04003CCF896
:103110000830DCF8083023F47063CCF80830DCF8B1
:10312000083023F44023CCF80830DCF80830CA69B2
:10313000120202F47062024342EA8E42134343F4E5
:10314000203343F08003CCF808300DE04FF0000E40
:103150000120D8E74FF0030E7046D4E7DCF80830C2
:1031600043F00803CCF80830DCF8083023F44013AF
:10317000CCF80830DCF8082091F820301B0503F467
:1031800040131343CCF80830DCF8003023F440132C
:10319000CCF80030DCF8003023F44003CCF80030E9
:1031A0004B69B3F5967F0ED3DCF8003043F400137F
:1031B000CCF80030DCF8003043F40003CCF80030E9
:1031C00000205DF804FBDCF8003043F48013CCF8F9
:1031D0000030DCF8003043F48003CCF800300020ED
:1031E000EFE703487047024870470148704700BF47
:1031F0000400B2002DE9F84F07469DF82800DDF8DD
:103200002CB00C9E9DF834909DF838A09DF83C8021
:103210001C1FE4B2FA2C00D801BEA9F10404E4B2E8
:10322000FA2C00D801BE08F1FF34E4B2012C06D913
:10323000B8F1040F03D0B8F1080F00D001BE012887
:1032400000D901BEBAF1010F00D901BE16B1BBF120
:10325000000F23D016B1B9F1FF0F21D04FEA085863
:1032600008F47008119C656A002A37D0032B19D026
:103270001B0403F4403343EA0803800400F4802075
:10328000034343EA11223A65C9B20B4326BB109AA5
:10329000D20402F4002213433B6531E001BED9E7BA
:1032A00001BEDBE70128E3D11B0403F4403343EA0A
:1032B0000803820402F480221343CAB2134301F4C8
:1032C0007F410B4336B9109AD20402F40022134313
:1032D0003B6515E00022FAE70022DCE71B0403F45B
:1032E000403343EA0803800400F480200343C9B25A
:1032F0000B435EB9109AD20402F4002213433B65DB
:10330000B9F1030F04D00024204644E00022F5E781
:10331000BAF1010F36D0002420463CE00B433B6558
:103320000234E4B22DBB28462246B4425CD22F4B75
:10333000984259D0B96C11F00801F3D10BEB02039C
:103340005B7843EA08031BF8020043EA00234FEAD4
:10335000094000F4403003434FEA8A4000F48020E3
:1033600003430232B242D9D3109AD10401F40021AE
:10337000D4E7012001F0CEFD013D01D00020D3E7CC
:103380001A48D1E700242046CEE70B433B650134C1
:10339000E4B205BB28462246B44225D2134B9842DC
:1033A00022D0B96C11F00801F3D11BF8023043EAC6
:1033B00008034FEA094000F4403003434FEA8A40D3
:1033C00000F4802003430132B242DED3109AD104CC
:1033D00001F40021D9E7012001F09CFD013D01D05D
:1033E0000020D8E70148D6E7BDE8F88F0200B20018
:1033F00070B58EB004469DF84860181FC0B2FA2818
:1034000000D801BE002A3DD0A56C15F008053CD1BE
:10341000032B18D010461B0403F44033013880B24C
:103420000343B60406F48026334343F00273236556
:1034300069B3139B5E6A03910592002308930423EA
:10344000069328460EE0012E01D01046E3E702F075
:10345000010000EB5200DEE7012001F05BFD013EC0
:103460000ED02846069B042B0DD10A4B98420AD059
:1034700069462046FFF7F6FC002EEDD13046F1E715
:103480000448EFE704480EB070BD0448FBE7284647
:10349000F9E700BF0200B2000400B2000100B20070
:1034A0000BB310B586469C468368C3F30153022BC9
:1034B00017D00024DEF8480010F0080015D10CF1F8
:1034C000FF339BB2090401F440310B43920402F430
:1034D0008022134343EAC45343F04073CEF8503084
:1034E00010BD0124E6E7024870470248F8E700BF34
:1034F0000400B2000100B20000284CD0844600292C
:103500004BD070B54B68002B39D08868002837D075
:103510000CF5005524350023184601E020480133FE
:103520008A689A4227D930BB4A684FEA830E52F81C
:103530002320002AF3D01478002CF0D05468C4F370
:103540000B06002EEAD19268C2F30B028AB92E460E
:1035500046F8084B4A6852F80E40227B520002F0AF
:103560003E02A46842EA041242F001026A60354653
:10357000D5E70B48D3E70A4B984201D10AE0002077
:103580000B7843F4E023CCF810304B780CF5005C5A
:10359000CCF81C3070BD024870470148704700BF2E
:1035A0000400B200034630B101220262986A10F0B2
:1035B0000400FBD170470148704700BF0400B2000F
:1035C000034630B102220262986A10F00400FBD177
:1035D00070470148704700BF0400B200034630B195
:1035E00003220262986A10F00400FBD17047014880
:1035F000704700BF0400B200D0B1844612F01F0F24
:1036000018D113F01F0F18D1ABB110B4D4B2A4006D
:1036100044EA810404F0040444F00104CCF824409A
:103620002032203B002BF1D118465DF8044B704747
:10363000034B00E0024B18467047014BFBE700BF0D
:103640000400B200D0B1844612F01F0F18D113F05D
:103650001F0F18D1ABB110B4D4B2A40044EA810456
:1036600004F0040444F00204CCF824402032203B4F
:10367000002BF1D118465DF8044B7047034B00E076
:10368000024B18467047014BFBE700BF0400B20035
:10369000D0B1844612F01F0F18D113F01F0F18D1AC
:1036A000ABB110B4D4B2A40044EA810404F0040421
:1036B00044F00304CCF824402032203B002BF1D10D
:1036C00018465DF8044B7047034B00E0024B184668
:1036D0007047014BFBE700BF0400B2002DE9F04F3B
:1036E00085B0002800F00D8117460646002900F03D
:1036F0000E81D1F804A0BAF1000F00F00B81002A6E
:1037000000F00B81D1F800B0BBF1000F03D0002511
:103710000395A84693E0DFF80882F4E006F5006917
:10372000B9F1000F00F0E780D9F8003023F44073BE
:10373000227A120202F440721343C9F8003063681F
:1037400013F0040253D1A3691B68013B032B00D97A
:1037500001BE002A72D1636813F0020F6ED0336885
:1037600013F0010F6AD1E3682269B3FBF2F102FBA7
:10377000113303B101BE2369B3F5803F02D35A1E52
:10378000134200D001BE2146484605F086F9A369E0
:103790009B685B7D87F82C30012B38D0B368C3F36E
:1037A0000153022B3AD0626802F00103D1080901EB
:1037B00001F010010B43217A090201F440710B431F
:1037C0005209D20392B21343227F120302F4E04261
:1037D000134343F00043C9F800302FE006F50869B1
:1037E0009EE706F510699BE706F5186998E7A16959
:1037F0002278237A0097304606F0F8F9024600282E
:10380000A1D00823AB400399194303919BE7D9F852
:10381000283043F04073C9F82830BFE7D9F8283082
:1038200043F08073C9F82830BDE7236A002B65D0C8
:103830003A462146304605F0BEF880460135AB4594
:1038400054D95AF82540002CF8D02278531EDBB208
:10385000012B04D9042A02D0082A00D001BE237A01
:10386000032B00D901BE63687B6306F5804341F6F4
:103870001B321A611B221A6206F58033EE22C3F84E
:10388000C4200B22C3F8442140F20772C3F8E82099
:103890000722C3F8682106EBC513D3F8282842F0A5
:1038A0000102C3F82828D3F8282842F01002C3F8F0
:1038B0002828A369002BB8D02378013B072B13D805
:1038C00001A252F823F000BF1D370014DD370014A9
:1038D000E9380014E3370014E9380014E93800141B
:1038E000E9380014E9370014DFF83480039B53B142
:1038F00043F4320807E0DFF82880F7E7DFF820809C
:10390000F4E7DFF81C80404605B0BDE8F08FDFF833
:103910001080F8E7DFF80880F5E7DFF80480F2E7C9
:103920000400B20030B589B08B69DC68FCB1236A51
:103930001B021FFA83FC23790D7821684CEA0101F0
:103940000792012206920595627F0492FF2203925C
:1039500000220292019294F824200092032B14BFBB
:103960000022012289B2FFF745FC09B030BD0148B1
:10397000FBE700BF8000B2002DE9F04784B00023D0
:10398000ADF80C308D69EB6A002B72D006460C4600
:103990001746296B00296ED0AA6A002A6DD093F8C9
:1039A000008091F8009092F800A00097434603AA87
:1039B000214605F09DF9002860D1ED6B402D05D022
:1039C000802D3ED0022D0FD02E4857E0EDB29DF84D
:1039D0000C301D438DF80C5000974B4603AA21462E
:1039E000304605F004FA49E00097534603AA214601
:1039F000304605F07DF9002840D1009743460DF18F
:103A00000D022146304605F073F9002836D1EBB29D
:103A10009DF80D2013438DF80D30B9F1310F07D00B
:103A200000974B4603AA2146304605F0E0F925E011
:103A300000974B460DF10D022146304605F0D7F9AF
:103A40001CE0009743460DF10D022146304605F07B
:103A50004FF998B9EDB29DF80D301D438DF80D501A
:103A600000974B460DF10D022146304605F0BFF997
:103A700004E0054802E0044800E0034804B0BDE863
:103A8000F08700BF0300B2008000B20011F07F0F8A
:103A90002FD070B586B005460C461E4611F0020FB9
:103AA0000FD0D368A3B11A7919780A9B0493012324
:103AB00003930296FF2301930023009304F038FF41
:103AC00000E0002014F0030F00D018B106B070BD64
:103AD0000020F7E70A9B0493012303930296FF2338
:103AE0000193002200921346B721284604F020FFDC
:103AF000ECE70148704700BF8000B2002DE9F04FAD
:103B00008BB081460D46904607939DF85030069342
:103B1000DDF854B0002306E003F128026A440021D6
:103B200002F8081C0133032BF6D963490024274609
:103B300035E003200FE004200DE000200BE0221808
:103B4000D21A2A4492F803C003F128026A4402F808
:103B500008CC0133DBB28342F1D3AE5D06F00F0631
:103B60000F2E34D0CDF810B000220392069B0293A2
:103B70000192009008AB484604F0DAFE014600B915
:103B80003EBB61B341B97F00FFB29DF827301AEA0E
:103B9000030F18BF47F00107083444452AD82B5DAE
:103BA00013F0020327D1621CA95CE21C15F802A0E5
:103BB00000228DF82720A61CAA5D9209012AB8D000
:103BC000022AB8D0002AB8D0079A1068C3E708269E
:103BD000C8E73146484604F0CDFE0146D1E7CDF8AE
:103BE00000B0002301220DF12701484604F0B8FE81
:103BF0000146C7E7314981B1002959D12B199F7876
:103C00000137FFB2079BDF64002F50D08E460E466F
:103C100000209846DDF858C012E02B195B78BB42B3
:103C2000EAD02B199B78023304EB8304A045F4D22D
:103C30002249E1E7D360BEFBF3F353600130C0B229
:103C4000B84235D27644043405EB040915F804E093
:103C50000EF00F0E0122002312EA0E0F06D15200C1
:103C6000D2B20133DBB2042BF6D91449D9F80020C3
:103C70004FEA122909F101094FEA092ED8F850201C
:103C800052F82020166003EB43030CEB830A1CF868
:103C900023309360DAF808301361DAF80430B3EBBC
:103CA000092FC7D9C2F80CE001235360C6E70249C7
:103CB00008460BB0BDE8F08F0600B2000700B20066
:103CC0002DE9F04FDFB00546069207930E46A9B1E5
:103CD000B369ABB100238DF8DF308DF8DE308DF89D
:103CE000DD308DF8AB308DF8AA308DF8A930B4698D
:103CF000377896F808A0D4F834800AE001BEE7E7E8
:103D000001BEE7E703F5BC726A44002102F8801C9B
:103D100001337F2BF6D9002111E001F5BC736B4410
:103D2000002203F8842C03F8882C03F88C2C03F869
:103D3000902C03F8942C03F8982C0131C9B2022975
:103D4000EBD952463946284604F0A6FD39462846A6
:103D500007F03CFBB8F1000F00F01082689B029363
:103D60003EAB0193382300933B463DAA414628468B
:103D700005F00DFD8146002840F066829DF8F83080
:103D8000532B02D0DFF8549460E29DF8F930462BB3
:103D900002D0DFF8489459E29DF8FA30442B02D063
:103DA000DFF8389452E29DF8FB30502B02D0DFF858
:103DB0002C944BE29DF8FD30012B02D0DFF81C94CF
:103DC00044E29DF8FC3009930DF1AB033DAA3EA9F6
:103DD0004FF47F4005F0DCF99DF8AB3013B9DFF804
:103DE000FC9333E20DF1AA033CAA3EA94FF684707E
:103DF00005F0CEF90DF1A9033BAA3EA94FF681705B
:103E000005F0C6F90DF1DE033AAA3EA94FF6877018
:103E100005F0BEF90DF1DD0339AA3EA94FF6057094
:103E200005F0B6F90DF1DF0338AA3EA94FF60A7086
:103E300005F0AEF99DF8A93013B90022E2642265BD
:103E40009DF8AB20802A00F2BF81802B00F2BF8159
:103E5000B9F1000F40F09481E368002B66D0689BB5
:103E600002930DF1F80BCDF804B09DF8AB30009340
:103E70003B463DAA4146284605F089FC08902BA9FF
:103E8000584605F069FC584605F0ACF901466060FB
:103E9000584605F092F92060E06805F079FB20694A
:103EA00005F07DFB0123A363A06A05F0F9FB069BE7
:103EB000012B09D9099B002B49D09DF83211C1F380
:103EC0000211204604F0BAFFE06905F0EEFBD4F8D9
:103ED00008B0099B002B3FD03EA805F0E3FA6062D2
:103EE000B0F5807F02D94FF4807363623EA805F07D
:103EF0001BFB60643EA805F03AFBA0645B46069A93
:103F000051463EA805F067FA82462368042B40F02C
:103F10001D81FF2833D0689B00933B4622469DF8C5
:103F200037112846FFF7B2FD089028E02369002BDF
:103F300095D16369002B92D1E369002B8FD1236A5D
:103F4000002B8CD1A36A002B89D101BE87E707998A
:103F5000204604F073FFB7E74FF4807363624FF4B9
:103F60007A4363649B4BA364079B002BC6D10693E3
:103F7000C4E70AAB002203F8092009F10109B9F1ED
:103F80007F0FF6D9089B002B50D0A36E93B1E26E41
:103F900082B1089B13B9069B032B56D04FF0FF3319
:103FA0001360A26E1360636700232367E26E93774A
:103FB000A26E9377089B002B00F088809946012021
:103FC00000F277136B4413F8802C01239340A36114
:103FD000099B002B40F0C8804FF47A732364236D53
:103FE000002B00F0CD80689B02933EAB01939DF8BF
:103FF000A93000933B463BAA4146284605F0C7FB43
:104000008146002840F0BC802BAB0293689B019353
:10401000009723469DF8A9203EA92846FFF76EFD8C
:104020006D4A904200F0A6808146A9E0689B029309
:104030000AAB01939DF8AA3000933B463CAA414647
:10404000284605F0A4FB08909FE7099B062BA5D9FD
:104050009DF8DF30C3B19DF8DD20AAB1616E99B142
:10406000689905919DF8DE1004913AA90391029296
:1040700039AA0192009338AB3A462146284605F00A
:104080008CFC034609281CD09DF829209DF8283077
:1040900043EA02239DF82B109DF82A20120442EADD
:1040A00001621343689A03929DF8DE2002923AAAB5
:1040B000019200933B4622463EA9284605F04CFD5E
:1040C0000346FF2B3FF476AF9A4673E75A465146B4
:1040D0000AA805F0C0F9226A51460AA805F09EFA1E
:1040E0002BAA0AA9204605F0E5FABAF1090F02D079
:1040F000DDF8209034E063691A681A62636903226C
:104100001A7161694FF0010E81F824E061694FF086
:10411000020C81F81EC061694A71616981F81DE075
:10412000216A0B680B62216A0A71216A81F824E016
:10413000216A81F81EC0216A4A71216A81F81DE056
:10414000216A0A75226A82F815E0D1E7206A05F033
:104150002BFA2BAA3EA9204605F0ACFADDF82090F8
:1041600000283FF43CAF2BE72BAA3EA905F0A0F9AD
:10417000206434E70023E364236504E0DFF85C9007
:10418000B9F1000F62D1736813F0020F5ED02B6893
:1041900013F0010F5AD1F3683269B3FBF2F102FB5D
:1041A000113303B101BE3369B3F5803F02D35A1E08
:1041B000134200D001BE013F072F43D8DFE807F0CC
:1041C0001239423C4242423FDFF81490D8E7DFF810
:1041D0001090D5E7A08601000600B2000500B200ED
:1041E0008100B20005F500654DB13146284604F066
:1041F0007BFEB3699B685B7D689A82F82C3072689D
:1042000002F00103D108090101F010010B43317ADA
:10421000090201F440710B435209D20392B21343D5
:10422000327F120302F4E042134343F000432B6059
:104230000CE005F50865D7E705F51065D4E705F549
:104240001865D1E70025DAE7DFF8089048465FB047
:10425000BDE8F08F0500B20000B54FEA102E4FEA1E
:10426000104CC0F30740012800D901BE5FFA8EFE52
:1042700020BB0A20704500D801BE002943D11CF0A4
:10428000FF0C1DD0BCF1010F2FD08A426DD2FF2B45
:104290006DD84FEA4C6C0CF1A44C0CF5802C02EB61
:1042A000CE2E0EF5806E5CF82E2022F47F421B028B
:1042B0009BB213434CF82E30002027E00620D9E7AC
:1042C0000EF1FF31082906D8DFE801F01707090BC6
:1042D000050505050D006146D7E70421D5E7012155
:1042E000D3E70121D1E70121CFE7BEF1020F06D0CC
:1042F000BEF1030F05D16146C7E70521C5E7614659
:10430000C3E70021C1E7012902D01C485DF804FB86
:104310001CF0FF0C07D1BEF1010F24D0BEF1080F35
:1043200002D0614600E00021914222D9B3F5803FDE
:1043300021D24FEA4C6C0CF1A44C0CF5802C02EB12
:10434000CE2202F5A0625CF8221021F47F0121F454
:104350007F411B0223F07F4323F0FF0319434CF8F6
:1043600022100020D2E70421DEE70448CEE703480C
:10437000CCE70248CAE70148C8E700BF01004A008D
:1043800070B54FEA102C4FEA104EC0F307400128D9
:1043900000D901BE5FFA8CFC48B90A20604500D8FC
:1043A00001BE022905D0404803294CD070BD06202B
:1043B000F4E71EF0FF002DD0012833D00024A242E4
:1043C0003BD2B3F5803F3AD2049C1F2C39D840062B
:1043D00000F1A44000F5802002EBCC2505F5C06576
:1043E00050F8254024F47F0424F47F441E0226F074
:1043F0007F4626F0FF06344340F8254050F825401C
:1044000024F0F804049EF600F6B2344340F8254048
:104410000020C9E7BCF1010F09D0BCF1070F08D19A
:104420000124CCE7BCF1010F05D00024C7E702242A
:10443000C5E70446C3E70324C1E71B48B4E71A48AD
:10444000B2E71948B0E71EF0FF0E04D1BCF1010F2E
:1044500027D0714600E000218A42A7D2B3F1807FC5
:10446000A4D204991F29A1D84FEA4E6E0EF1A44E92
:104470000EF5802E02EBCC2202F5E0625EF82210EF
:10448000C9B241EA03234EF822305EF8221021F02F
:10449000F801049BDB00DBB20B434EF82230002016
:1044A00084E76146D8E700BF01004A0030B54FEA13
:1044B000102C030CC0F30744012C00D901BE5FFA95
:1044C0008CFCBCB90A24644500D801BE032900F263
:1044D000898039B913F0FF040ED0012C2ED00024AE
:1044E000A2426BD3012933D0022942D003295AD0EA
:1044F0003E4876E00624E6E70CF1FF3EBEF1080FE9
:10450000EED801A555F82EF04D4500142D450014A8
:104510003145001435450014E1440014E144001411
:10452000E1440014E1440014394500140424D7E7A1
:104530000124D5E70124D3E70124D1E7BCF1020F20
:10454000CED0BCF1030FCBD00024C9E70524C7E7C8
:1045500013F0FF0407D1BCF1010F08D0BCF1080F24
:1045600002D1012400E00024A24227D3BCE70424A6
:10457000FAE713F0FF0405D0012C0BD00024A2426F
:104580001CD3B3E7BCF1010F09D0BCF1070FF6D182
:104590000124F4E7BCF1010F03D00024EFE702246B
:1045A000EDE70324EBE713F0FF0404D1BCF1010FA6
:1045B00002D1644600E00024A24215D2090201F4AF
:1045C0004071D2B25B0603F1A44303F580230A4392
:1045D0004FEACC2151FA80F000F5407043F82020DA
:1045E000002030BD0148FCE70048FAE701004A001E
:1045F0004FEA102C030CC0F30740012800D901BE7C
:104600005FFA8CFCC0B90A20604500D801BE0329BE
:1046100000F28A8010B539B913F0FF000ED00128DE
:104620002ED0002082426BD3012933D0022942D000
:1046300003295AD03E4876E00620E5E70CF1FF3E1C
:10464000BEF1080FEED801A454F82EF091460014E4
:10465000714600147546001479460014254600146E
:104660002546001425460014254600147D460014F6
:104670000420D7E70120D5E70120D3E70120D1E7C7
:10468000BCF1020FCED0BCF1030FCBD00020C9E7A4
:104690000520C7E713F0FF0007D1BCF1010F08D0D8
:1046A000BCF1080F02D1012000E00020824227D394
:1046B000BCE70420FAE713F0FF0005D001280BD077
:1046C000002082421CD3B3E7BCF1010F09D0BCF13A
:1046D000070FF6D10120F4E7BCF1010F03D0002051
:1046E000EFE70220EDE70320EBE713F0FF0004D132
:1046F000BCF1010F02D1604600E00020824215D2D9
:10470000090201F44071D2B25B0603F1A44303F540
:104710008023114341F0034141F47F014FEA4C32C1
:1047200099509B58002010BD014870470048FAE797
:1047300001004A004FEA102C030CC0F30740012887
:1047400000D901BE5FFA8CFCC0B90A20604500D8D0
:1047500001BE032900F2878010B539B913F0FF00BC
:104760000ED001282ED0002082426BD3012933D0F5
:10477000022942D003295AD03D4873E00620E5E7DC
:104780000CF1FF3EBEF1080FEED801A454F82EF054
:10479000D5470014B5470014B9470014BD470014AD
:1047A00069470014694700146947001469470014F9
:1047B000C14700140420D7E70120D5E70120D3E743
:1047C0000120D1E7BCF1020FCED0BCF1030FCBD05A
:1047D0000020C9E70520C7E713F0FF0007D1BCF1AF
:1047E000010F08D0BCF1080F02D1012000E0002029
:1047F000824227D3BCE70420FAE713F0FF0005D07C
:1048000001280BD0002082421CD3B3E7BCF1010F7A
:1048100009D0BCF1070FF6D10120F4E7BCF1010F7C
:1048200003D00020EFE70220EDE70320EBE713F0D1
:10483000FF0004D1BCF1010F02D1604600E000206E
:10484000824212D2090201F44071D2B25B0603F136
:10485000A44303F58023114341F080414FEA4C32D9
:104860009950002010BD024870470148FAE700BF88
:1048700001004A00030AC0F30722C0B2012A00D98E
:1048800001BE052800D901BEFF290ED8DBB22933AD
:104890005B0600F5807080011A5822F47F420902FD
:1048A00089B20A431A50002070470148704700BF80
:1048B00001004A00030AC0F3072CC0B2BCF1010F8B
:1048C00000D901BE052800D901BE022900D901BEC8
:1048D00019B101290BD00B487047DBB22933800195
:1048E00000EB436044F21003C25000207047DBB27B
:1048F0002933800100EB436044F21403C2500020CE
:10490000704700BF01004A000D2806D800F59260EC
:10491000034B53F82000C00F70470020704700BFC2
:10492000000040520D280FD80F290FD8084A00F573
:10493000926052F8203023F00F0301F00F010B4377
:1049400042F8203000207047024870470148704705
:104950000000405201004A000D2800D901BE00F5B8
:104960009260034B53F8200000F00F00704700BF27
:10497000000040520D2810D80F2910D8094A00F520
:10498000926052F8203023F47063090201F47061E0
:104990000B4342F82030002070470348704702481C
:1049A000704700BF0000405201004A000D2800D9A6
:1049B00001BE00F59260034B53F82000C0F30320C2
:1049C000704700BF00004052024BD3F89403C0F37D
:1049D0008000704700104052014B1868704700BFBC
:1049E000940C0134044BD3F8680300F0030003284F
:1049F00000D070470220FCE70010405208B5FFF7D6
:104A0000F1FF022801D0002008BD014B1868FBE728
:104A1000980C0134064AD2F8443323F4FF6323F0A0
:104A20000703C0F30A000343C2F84433704700BFD2
:104A300000104052032908D940F21113994204D0C2
:104A400040F21313994200D001BE052818D8FF295F
:104A50000DD901F01F010B4B00F1400243F8221069
:104A600000F59060072243F820200020704701F0F5
:104A7000070100F59060034B43F8201000207047B9
:104A8000014870470000405201004A0002460528D4
:104A900000D901BE02F59063074951F8230000F0E8
:104AA0000700072800D07047403251F8220000F07C
:104AB0001F0040F48070F6E70000405208B505285A
:104AC00000D901BEFFF7E2FF032807D8032803D867
:104AD000DFE800F0281F223A002036E040F21113F0
:104AE000984229D040F21313984206D1174BD3F8BD
:104AF0007033002B13DB002027E0B0F5887F06D150
:104B0000124BD3F88033002B13DB00201DE0002074
:104B10001BE0FFF761FF18E0FFF770FF15E04FF4AF
:104B2000004012E005F093F808B900200DE00848B5
:104B30000BE04FF4004008E0FFF746FF08B9002003
:104B400003E04FF4004000E0024808BD001040526E
:104B5000001BB70000127A00012800D901BEB03056
:104B60004001024B1858C00F704700BF0000405270
:104B700038B5012800D901BE084DB03044012B5989
:104B800023F0405343F000532B51012000F0C2F9B1
:104B90002B5923F000432B51002038BD0000405218
:104BA00038B505460C46012800D901BE6022002117
:104BB000206805F008FD214A05F1B003580102EB19
:104BC00043111358206803702068C3F3042C80F845
:104BD00001C02068C3F3044C80F802C02068C3F30E
:104BE000C06C80F803C02068C3F3017303714B6885
:104BF000216823F07F408860206813F0E04118BFEF
:104C0000012101732168DB0F4B7302EB451241F266
:104C10000863D3582268D9B211612268C3F30241F4
:104C200011752268C3F3006151752268C3F30071E6
:104C300091752268DB0FD375002038BD000040520B
:104C4000034600B101BE60339B01024AD058C00F39
:104C5000704700BF0000405238B5044600B101BEA5
:104C6000084D6034A4012B5923F0405343F0005306
:104C70002B51012000F04EF92B5923F000432B510A
:104C8000002038BD0000405238B50C46054600B142
:104C900001BE34220021606805F095FC594B05F1F6
:104CA0006002900103EB82111A586068027060681C
:104CB000C2F3022C80F801C06068C2F3023C80F8A5
:104CC00002C06068C2F3017C80F803C06068D20F44
:104CD00002714A686168C2F3140088606168C2F3B7
:104CE000425008736168C2F303624A7303EB851391
:104CF00041F608029A58616802F001008873616801
:104D0000C2F34072CA7341F60C029A58616802F00D
:104D10001F0008746168C2F3441048746168C2F3EC
:104D2000C22088746168C2F30340C8746168C2F32A
:104D3000025008756168C2F3C35048756168C2F3D8
:104D4000C3628A7541F610029A58616802F01F002A
:104D5000C8756168C2F3441008766168C2F3003216
:104D60004A7641F614029A5861688A836168120C87
:104D7000CA8341F618029A586168C2F312000862A9
:104D80006168C2F3005081F824006168C2F30062D8
:104D900081F8252041F61C029A58616802F0010052
:104DA00081F826006168C2F3400081F8270061683D
:104DB000C2F3004081F828006168C2F3005281F814
:104DC000292003F5C1531B68626803F0070182F8CC
:104DD0002A106268C3F3C00182F82B106268C3F323
:104DE000001182F82C106268C3F30C41D18562680F
:104DF000C3F3407182F830106268DB0F82F8313003
:104E0000002038BD0000405210B5044604F0F9FF00
:104E10000D2C0DD8084B98420CD8084A04F5926422
:104E200052F8243043F0004342F82430002010BDF3
:104E30000348FCE70348FAE70084D7170000405214
:104E400001004A0003004A00084B9A68084B9A4246
:104E50000AD139B100F11003054A52F8230042F893
:104E60002310704701BEF5E70020704700ED00E019
:104E70000008013438B308B584464368072B00D9CD
:104E800001BEBCF90030DCF80420002B0EDB52011F
:104E9000D2B203F1604303F5614383F800230B4B67
:104EA0009A680B4B9A4208D0002008BD03F00F030C
:104EB0005201D2B20748C254F1E7BCF90000FFF733
:104EC000C3FF0020F1E70448704700BF00ED00E099
:104ED0000008013414ED00E00100560038B5044626
:104EE0000B4B1B684FF0FF35B5FBF3F506E0084BA5
:104EF000186805FB00F0FBF787FC641BAC42F6D892
:104F0000034B186804FB00F0FBF77EFC38BD00BFC4
:104F10001400013408B5034B1B6803FB00F0FBF7DA
:104F200073FC08BD18000134054B4FF000429A6431
:104F30009B6C002B01DB002070470248704700BFCC
:104F400000004252030046000C4BD3F8D00B9B6884
:104F500013F0FF0F01D040F00040084BD3F8D43BD2
:104F60009BB20BB140F48030044BD3F8D43B13F424
:104F7000803F01D040F40030704700BF0010405225
:104F800008B50268254B1A6242685A6282689A62C2
:104F9000C268DA6202691A6342695A6382699A6373
:104FA000C269DA631E4A916A1964D16A5964516A06
:104FB0009964516BD964926B1A65F1EE103A13F053
:104FC000900F28D0026A154B5A65426A9A65826A28
:104FD000DA65C26A1A66026B5A66426B9A66826B1F
:104FE000DA66C26B1A67026C5A67426C9A67826C07
:104FF000DA67C26CC3F88020026DC3F88420426D6A
:10500000C3F88820826DC3F88C20C26DC3F890204D
:10501000026EC3F8942004F02FFF08BD580B013432
:1050200000ED00E038B504460D46082800D901BE61
:10503000082D00D901BE2946204604F01EFF022893
:1050400001D0074838BD240104F1A44404F58204CA
:1050500023680122AA40134323600020F2E700BF27
:10506000FF00420038B504460D46082800D901BEAD
:10507000082D00D901BE2946204604F0FEFE022874
:1050800001D0074838BD240104F1A44404F582048A
:1050900023680122AA4023EA020323600020F1E7EB
:1050A000FF00420008B538B10A2900D901BEC9B2D3
:1050B00004F054FF014808BD01BEF5E703004200BB
:1050C00008B538B10A2900D901BEC9B204F038FFC9
:1050D000014808BD01BEF5E703004200014B43F85B
:1050E000201070470040405208B505281DD0062802
:1050F00033D0012801D0254808BD05212448FFF7F9
:10510000D1FF02212348FFF7CDFF02212248FFF7FC
:10511000C9FF05212148FFF7C5FF4FF0E022D36802
:1051200023F48013D3600020E6E702211848FFF73C
:10513000B9FF02211748FFF7B5FF02211648FFF714
:10514000B1FF00211548FFF7ADFF4FF0E022D36813
:1051500043F48013D3600020CEE700210C48FFF712
:10516000A1FF00210B48FFF79DFF00210A48FFF730
:1051700099FF00210948FFF795FF4FF0E022D3681F
:1051800043F48013D3600020B6E700BF0100420063
:1051900000104152000022520010225200502252B0
:1051A00008B5052819D006282BD0012801D01F48A2
:1051B00008BD05211E48FFF775FF05211D48FFF7B3
:1051C00071FF05211C48FFF76DFF4FF0E022D36807
:1051D00023F48013D3600020EAE702211448FFF78C
:1051E00061FF00211348FFF75DFF00211248FFF720
:1051F00059FF4FF0E022D36843F48013D3600020BE
:10520000D6E700210A48FFF74DFF00210948FFF7C4
:1052100049FF00210848FFF745FF4FF0E022D3681F
:1052200043F48013D3600020C2E700BF01004200B6
:1052300000304152001010540000105408B50848C6
:1052400004F038FE022806D0052806D008B1002058
:1052500008BD0620FCE70520FAE70120F8E700BFBB
:105260000010415208B50A4BD3F8D02BD3F8D43BE9
:1052700002B13BB9FFF7E2FF052805D0062805D1AA
:10528000012008BD0220FCE70020FAE70220F8E731
:1052900000104052022802D9112800D001BE054A50
:1052A000D2F8143C23F0030300F003000343C2F8D8
:1052B000143C704700104052024BD3F8140C00F01D
:1052C000030070470010405210B56424074BD3F818
:1052D000203C002B05DB24B1013C0120FFF7FEFD43
:1052E000F4E70CB1002010BD0148FCE7001040526B
:1052F0000200420010B56424084BD3F8203C13F0A0
:10530000010F05D124B1013C0120FFF7E7FDF3E7D0
:105310000CB1002010BD0248FCE700BF0010405255
:105320000200420008B5084BD3F8283C23F00103E3
:1053300038B101221343044AC2F8283CFFF7DAFFD0
:1053400008BD0022F6E700BF0010405210B540F241
:1053500007610220FFF7C2FE40F207610320FFF75A
:10536000BDFE40F207610420FFF7B8FE40F207617E
:105370000520FFF7B3FE40F23D610620FFF7AEFEC9
:1053800040F23D610720FFF7A9FE0F210820FFF73B
:10539000A5FE40F206610220FFF7A0FE40F2066182
:1053A0000320FFF79BFE40F206610420FFF796FE04
:1053B00040F206610520FFF791FE40F22D610620C4
:1053C000FFF78CFE40F22D610720FFF787FE0B21CF
:1053D0000820FFF783FE40F204610220FFF77EFE03
:1053E00040F204610320FFF779FE40F204610420DB
:1053F000FFF774FE40F204610520FFF76FFE002006
:10540000FFF748FFFFF760FF10B10D4C204610BDBD
:10541000FFF788FF044608B1094CF7E740F22D2159
:105420000620FFF75BFE40F22D210720FFF756FE16
:10543000044A536A23F0030343F002035362E5E78F
:10544000FF004200003021521F2800D901BE064A49
:10545000D2F8283C23F07C03800000F07C0003435A
:10546000C2F8283C704700BF0010405210B540F20F
:1054700006610220FFF732FE40F206610320FFF7CB
:105480002DFE40F206610420FFF728FE40F206617F
:105490000520FFF723FE40F23F210620FFF71EFE06
:1054A00040F23F210720FFF719FE40F20761042078
:1054B000FFF714FE40F207610520FFF70FFE40F2F0
:1054C0000F610420FFF70AFE40F20F610520FFF78D
:1054D00005FE40F20F210420FFF700FE40F20F21ED
:1054E0000520FFF7FBFD0220FFF7D4FEFFF7ECFEDF
:1054F00010B12C4C204610BD1020FFF7A5FF012055
:10550000FFF710FF044608B1264CF3E740F24331A1
:10551000FFF7E4FD40F243310120FFF7DFFD40F2E9
:1055200006210220FFF7DAFD40F206210320FFF7F3
:10553000D5FD3F210620FFF7D1FD3F210720FFF7D2
:10554000CDFD0A210820FFF7C9FD40F242310020BD
:10555000FFF7C4FD40F242310120FFF7BFFD40F2EA
:1055600002210220FFF7BAFD40F202210320FFF7DB
:10557000B5FD40F20B210420FFF7B0FD40F20B21F6
:105580000520FFF7ABFD1B210620FFF7A7FD1B2120
:105590000720FFF7A3FD044A536A43F00303536255
:1055A000A8E700BFFF0042000030215270B582B072
:1055B00006460D46072800D901BE6B1EDBB2012B43
:1055C00004D9042D02D0082D00D001BE284B53F879
:1055D0002640042D1DD0012D1DD0022D31D0264690
:1055E0006469002CFBD1002032E06469BCB1214B1E
:1055F000984212D0A3681D42F7D1E3681A6800925E
:105600005B68019323682946684698471A4B1C60DB
:10561000EBE70020EAE70020E8E7012DEAD1012DC1
:1056200001D002B070BD134B984204D0134B00223E
:1056300043F82620F5E7104B1A68104B43F8262054
:10564000EFE70D4B1E68002ECDD03669CBE73669EB
:10565000002EE6D0B3681D42F9D1F3681A680092B3
:105660005B6801933368294668469847EFE700BFB7
:10567000C00C0134FF004200BC0C01349C0C01340E
:1056800008B5FFF719FE68B980201C4B9B6813F022
:10569000010F11D0194B9B6813F0020F0CD040F48E
:1056A000802010E0FFF708FE012802D04FF00060D4
:1056B000EBE74FF40060E8E7104B9B6813F0010F35
:1056C0000ED040F400300E4B9B6813F0010F0AD04F
:1056D0000B4B9B6813F0020F05D040F4800009E0EB
:1056E00040F48030EFE7064B9B6813F0010F02D0C7
:1056F00040F4001008BD40F48010FBE70000265283
:105700000000165438B51A4BDB6903B3012107209A
:10571000FFF74CFF054628BBFBF77FF80446144B08
:10572000DB691BB104210720FFF740FF04F0ECFB0D
:1057300078B1FFF79BFE2046FBF773F80C4BDB6953
:105740001BB108210720FFF731FF284638BD00258F
:10575000E2E704F0DFFB0028EDD0FFF7F7FDFFF7ED
:1057600085FEE8E702210720FFF720FF014DECE767
:10577000C00C0134FF004200024A136943F00203E7
:105780001361704700E002E0024A136923F002034C
:105790001361704700E002E008B5FFF7EDFF034A30
:1057A000136943F00103136108BD00BF00E002E08C
:1057B00008B5FFF7E9FF034A136923F001031361FA
:1057C00008BD00BF00E002E010B52C4A07212C48BC
:1057D000FCF738FD2B4C2C4A00212046FCF732FD0B
:1057E0002A4A01212046FCF72DFD8034284A002159
:1057F0002046FCF727FD274A01212046FCF722FD21
:10580000254C264A00212046FCF71CFD244A012194
:105810002046FCF717FD234A02212046FCF712FD23
:10582000214A03212046FCF70DFD204C204A05218A
:105830002046FCF707FD1F4A06212046FCF702FD23
:105840001D4A00211D48FCF7FDFCA4F5F0641C4A2C
:1058500005212046FCF7F6FC1A4A07212046FCF7F2
:10586000F1FC8034184A02212046FCF7EBFC174A71
:1058700004212046FCF7E6FC10BD00BF54AD001427
:10588000000881520009815290AD0014CCAD001483
:1058900008AE001444AE00140000475480AE00145B
:1058A000BCAE0014F8AE001434AF0014800A81526C
:1058B00070AF0014ACAF0014E8AF00148002815246
:1058C00024B0001460B000149CB00014D8B00014D0
:1058D00010B50120FFF718F860B104241C4B1C60C0
:1058E00001211C4804F0F4FA21460520FFF79AFB39
:1058F000142407E00120FFF787FAEEE70120FFF705
:1059000009FB013C134804F0DCFA082801D0002C04
:10591000F4D104B901BE0C20FFF7FCFA0C2403E01B
:105920000120FFF7F7FA013C0B4804F0CAFA0828F7
:1059300001D0002CF4D104B901BE0121064804F0C5
:10594000C7FA064A536843F00043536010BD00BFD6
:1059500000204152003041520000105400104052CB
:1059600010B560B30220FEF7CFFF78B10421072005
:10597000FFF758FB01220221104604F054F948B108
:10598000114B4FF6FF729A600C240EE00220FFF7D5
:105990003BFAEBE701231A460221184604F040FACD
:1059A000EEE70120FFF7B6FA013C084804F089FA57
:1059B000082801D0002CF4D12CB901BE03E0042149
:1059C0000720FFF74FFB10BD000064540000665431
:1059D000032822D8DFE800F00208121C0F4A1368DF
:1059E00023F03103136070470C4B1A6822F0200239
:1059F0001A601A6842F011021A607047074B1A6861
:105A000022F010021A601A6842F021021A607047F0
:105A1000024A136843F031031360704700101C54AE
:105A20007BB972B90029BEBF00204FF0004106E0EB
:105A300008BF00281CBF6FF000414FF0FF3000F09E
:105A4000CDB9ADF1080C6DE904CE002909DB002BBE
:105A50001ADB00F04DF8DDF804E0DDE9022304B0C4
:105A60007047404261EB4101002B1BDB00F040F826
:105A7000DDF804E0DDE9022304B0404261EB4101BE
:105A8000524263EB43037047524263EB430300F01F
:105A90002FF8DDF804E0DDE9022304B0404261EBB9
:105AA00041017047524263EB430300F021F8DDF8F7
:105AB00004E0DDE9022304B0524263EB4303704784
:105AC00053B94AB9002908BF00281CBF4FF0FF3165
:105AD0004FF0FF3000F082B9ADF1080C6DE904CE53
:105AE00000F006F8DDF804E0DDE9022304B07047B9
:105AF0002DE9F04F099E0D4604460F46002B46D176
:105B00008A4294465ED9B2FA82F343B102FA03FCA8
:105B1000C3F120029F409C4020FA02F217434FEA53
:105B20001C4E1FFA8CF5220CB7FBFEF10EFB117711
:105B300001FB05F042EA0742904208D91CEB020241
:105B400001F1FF3702D2904200F234813946121A35
:105B5000A4B2B2FBFEF00EFB102200FB05F544EAF6
:105B60000244A54208D91CEB040400F1FF3202D222
:105B7000A54200F21981104640EA0140641B002151
:105B80001EB1DC400023C6E90043BDE8F08F8B4224
:105B900008D9002E00F0FC800021C6E90005084667
:105BA000BDE8F08FB3FA83F100294CD1AB42C0F0CD
:105BB000F280824240F2EF800846002EE5D0C6E92E
:105BC0000047E2E702B9FFDEB2FA82F3002B40F0B1
:105BD0009F808A1A4FEA1C4E1FFA8CF70121B2FBF4
:105BE000FEF50EFB1520220C42EA004207FB05F0F1
:105BF00090420FD91CEB020205F1FF382CBF4FF089
:105C000001094FF00009904203D9B9F1000F00F0EB
:105C1000CE804546121AA4B2B2FBFEF00EFB102253
:105C200000FB07F744EA0244A74208D91CEB04042E
:105C300000F1FF3202D2A74200F2B3801046E41B0B
:105C400040EA05409CE7C1F120048B4005FA01FCC5
:105C500022FA04F7E5408A401F4320FA04F3884003
:105C60004FEA174843EA0C031FFA87FC4FEA13492F
:105C7000B5FBF8FE08FB1E5549EA05450EFB0CF97D
:105C8000A9450ED97D190EF1FF3A2CBF4FF0010B3B
:105C90004FF0000BA94503D9BBF1000F00F08D8038
:105CA000D646A5EB09051FFA83F9B5FBF8F308FB07
:105CB000135503FB0CFC49EA0545AC4506D97D1993
:105CC00003F1FF3801D2AC457ED8434643EA0E4388
:105CD000A5EB0C05A3FB02984545CE46C44602D36E
:105CE00006D1484504D2013BB9EB020E68EB070C24
:105CF000002E6FD0B0EB0E0265EB0C05CA4005FA22
:105D000004F4CD40184614430021C6E900453CE7A1
:105D100002FA03FCC3F1200299409C40D5404FEAAF
:105D20001C4E20FA02F21FFA8CF7B5FBFEF00A4374
:105D30000EFB1055110C41EA054100FB07F58D42A1
:105D40000ED91CEB010100F1FF382CBF4FF0010907
:105D50004FF000098D4202D9B9F1000F31D0404611
:105D6000491B92B2B1FBFEF50EFB151142EA01424E
:105D700005FB07F1914207D91CEB020205F1FF3840
:105D800001D2914223D84546521A45EA004126E7FE
:105D900031463046F9E6841A65EB030201201746C6
:105DA0000BE7644402384AE764440238E4E6023D03
:105DB00062442FE702396244C9E6AEF1020E3D4467
:105DC0006FE702386144CBE7023B3D447EE7023D8A
:105DD0006244D9E718463146D7E600BF704700BF96
:105DE00008B5064B044613B10021AFF30080044B05
:105DF0001B6803B19847204602F066F900000000D6
:105E0000600F0134024B0146186800F023B800BF50
:105E10007403013470B50E4E0C460546316811B955
:105E200000F02EFD30602146284600F029FD431C7D
:105E30000AD0C41C24F00304A04207D0211A28462B
:105E400000F01EFD013001D14FF0FF34204670BD3F
:105E5000240E01342DE9F041CD1C074625F0030541
:105E600008350C2D38BF0C25002D01DBA94205D9C2
:105E70000C2300263B603046BDE8F0812F4E00F039
:105E80005FF833681C4644BB29463846FFF7C2FF1B
:105E9000431C04464FD134682646002E42D1002CC4
:105EA00043D023683146384604EB030800F0E8FC91
:105EB00080453AD1236803353846ED1A25F00305AD
:105EC00008350C2D38BF0C252946FFF7A3FF0130FC
:105ED0002BD023682B4423600EE02268521B1ED473
:105EE0000B2A16D96119A342256018BF596063684F
:105EF00008BF316062514B6004F10B06384600F078
:105F000025F8231D26F00706F21AB4D09B1BA350D8
:105F1000B1E76268A3420CBF32605A60ECE72346E7
:105F20006468B0E734467668B7E70C2338463B60D0
:105F300000F00CF89FE72560DEE700BF200E01347B
:105F4000014804F048BB00BF6D0F0134014804F064
:105F500043BB00BF6D0F01342DE9F04F2DED028BD7
:105F600091B00C4616461F46DDF87080054600F0DD
:105F70004FFCD0F800A0504604F04AFB002394F8F0
:105F800018B008EE100A0E9323680993D8F8003071
:105F9000073323F0070303F10802C8F800204FF08D
:105FA000FF32D3E9008929F00043CDF828800B9314
:105FB000A04BDDE90A01C4E9128901F097FF88BB13
:105FC0004FF0FF329B4BDDE90A0101F071FF48BB46
:105FD000002200234046494601F060FF10B12D2306
:105FE00084F84330944A954BBBF1470F94BF9046D9
:105FF000984603234FF000092361099B23F0040313
:10600000236033460FAA21462846009704F077F90B
:10601000013040F092804FF0FF3011B0BDEC028BA8
:10602000BDE8F08F42464B464046494601F05EFFD0
:1060300040B14B46824A002BBCBF2D2384F843302D
:10604000804BD1E763680BF0DF015A1C43D1062374
:1060500063600022099B28460A9106920EAA43F427
:106060008063CDE904B20DAA236003920DF13302DF
:10607000CDE901326368424600934B4604F0A0F834
:106080000A99804647290D9908D1C81C02DB63682C
:10609000994240DDABF102035FFA83FBBBF1650F70
:1060A0001FD801395A4604F150000D9104F0EAF866
:1060B0000E9A81461318012A236102DC2268D20756
:1060C00001D5013323619DF83330002B99D02D2366
:1060D00084F8433095E74729BBD1002BB9D1012380
:1060E000B6E7BBF1660F18D1002963680BDD2161AB
:1060F00013B92268D00702D501330B4423614FF056
:106100000009A165DFE713B92268D20701D5023380
:10611000F4E70123F2E74FF0670B0E9B994205DB92
:1061200023682161D807EAD54B1CE7E70029D4BFD3
:10613000C1F1020201221344E0E723685A0507D4A3
:106140002369424631462846B84701302CD162E7E0
:10615000BBF1650F40F2E08000220023D4E9120178
:1061600001F092FE002834D00123374A31462846F8
:10617000B84701303FF44FAFDDE90D239A4202DB0F
:106180002368D80710D518EE103A524631462846F3
:10619000B84701303FF43FAF4FF0000804F11A094F
:1061A0000E9B013B434509DC23689B0700F10781F7
:1061B000E0680F9B9842B8BF18462EE701234A4675
:1061C00031462846B84701303FF425AF08F10108B1
:1061D000E6E70D9B002B39DC01231B4A314628469C
:1061E000B84701303FF417AFDDE90D32134302D158
:1061F0002368D907D8D518EE103A524631462846BA
:10620000B84701303FF407AF4FF0000904F11A0A14
:106210000D9B5B424B4501DC0E9B92E701235246EE
:1062200031462846B84701303FF4F5AE09F101097F
:10623000EEE700BFFFFFEF7F58B100145CB1001420
:1062400060B1001464B1001468B100140E9AA36D1B
:106250009A42A8BF1A46002A914637DC4FF0000B3D
